{
  "address": "0xe7f1725E7734CE288F8367e1Bb143E90bb3F0512",
  "abi": [
    {
      "inputs": [
        {
          "internalType": "address",
          "name": "priceFeedAddress",
          "type": "address"
        }
      ],
      "stateMutability": "nonpayable",
      "type": "constructor"
    },
    {
      "inputs": [],
      "name": "FundMe__NotOwner",
      "type": "error"
    },
    {
      "inputs": [],
      "name": "MINIMUM_USD",
      "outputs": [
        {
          "internalType": "uint256",
          "name": "",
          "type": "uint256"
        }
      ],
      "stateMutability": "view",
      "type": "function"
    },
    {
      "inputs": [],
      "name": "cwithdraw",
      "outputs": [],
      "stateMutability": "payable",
      "type": "function"
    },
    {
      "inputs": [],
      "name": "fund",
      "outputs": [],
      "stateMutability": "payable",
      "type": "function"
    },
    {
      "inputs": [
        {
          "internalType": "address",
          "name": "fundingAddress",
          "type": "address"
        }
      ],
      "name": "getAddressToAmountFunded",
      "outputs": [
        {
          "internalType": "uint256",
          "name": "",
          "type": "uint256"
        }
      ],
      "stateMutability": "view",
      "type": "function"
    },
    {
      "inputs": [
        {
          "internalType": "uint256",
          "name": "index",
          "type": "uint256"
        }
      ],
      "name": "getFunder",
      "outputs": [
        {
          "internalType": "address",
          "name": "",
          "type": "address"
        }
      ],
      "stateMutability": "view",
      "type": "function"
    },
    {
      "inputs": [],
      "name": "getOwner",
      "outputs": [
        {
          "internalType": "address",
          "name": "",
          "type": "address"
        }
      ],
      "stateMutability": "view",
      "type": "function"
    },
    {
      "inputs": [],
      "name": "getPriceFeed",
      "outputs": [
        {
          "internalType": "contract AggregatorV3Interface",
          "name": "",
          "type": "address"
        }
      ],
      "stateMutability": "view",
      "type": "function"
    },
    {
      "inputs": [],
      "name": "getVersion",
      "outputs": [
        {
          "internalType": "uint256",
          "name": "",
          "type": "uint256"
        }
      ],
      "stateMutability": "view",
      "type": "function"
    },
    {
      "inputs": [],
      "name": "withdraw",
      "outputs": [],
      "stateMutability": "payable",
      "type": "function"
    }
  ],
  "transactionHash": "0xd6dc2dff05a6387fb9c10c1e637fa1418dbc27b3c7e77b6ebe409d30e0fd0056",
  "args": [
    "0x5FbDB2315678afecb367f032d93F642f64180aa3"
  ],
  "numDeployments": 1,
  "solcInputHash": "f9c890f7fd7c0685f1de4a1068da7ee8",
  "bytecode": "0x60a06040523480156200001157600080fd5b50604051620013ce380380620013ce833981810160405281019062000037919062000120565b3373ffffffffffffffffffffffffffffffffffffffff1660808173ffffffffffffffffffffffffffffffffffffffff1660601b8152505080600260006101000a81548173ffffffffffffffffffffffffffffffffffffffff021916908373ffffffffffffffffffffffffffffffffffffffff1602179055505062000152565b600080fd5b600073ffffffffffffffffffffffffffffffffffffffff82169050919050565b6000620000e882620000bb565b9050919050565b620000fa81620000db565b81146200010657600080fd5b50565b6000815190506200011a81620000ef565b92915050565b600060208284031215620001395762000138620000b6565b5b6000620001498482850162000109565b91505092915050565b60805160601c61124862000186600039600081816102c0015281816104b60152818161055d015261058301526112486000f3fe6080604052600436106100865760003560e01c8063893d20e811610059578063893d20e81461012857806389498438146101535780639e87a5cd1461015d578063b60d428814610188578063d7b4750c1461019257610086565b80630343fb251461008b5780630d8e6e2c146100c85780633ccfd60b146100f35780636b69a592146100fd575b600080fd5b34801561009757600080fd5b506100b260048036038101906100ad9190610b53565b6101cf565b6040516100bf9190610b99565b60405180910390f35b3480156100d457600080fd5b506100dd610217565b6040516100ea9190610b99565b60405180910390f35b6100fb6102be565b005b34801561010957600080fd5b5061011261054c565b60405161011f9190610b99565b60405180910390f35b34801561013457600080fd5b5061013d610559565b60405161014a9190610bc3565b60405180910390f35b61015b610581565b005b34801561016957600080fd5b506101726107c1565b60405161017f9190610c3d565b60405180910390f35b6101906107eb565b005b34801561019e57600080fd5b506101b960048036038101906101b49190610c84565b610925565b6040516101c69190610bc3565b60405180910390f35b60008060008373ffffffffffffffffffffffffffffffffffffffff1673ffffffffffffffffffffffffffffffffffffffff168152602001908152602001600020549050919050565b6000600260009054906101000a900473ffffffffffffffffffffffffffffffffffffffff1673ffffffffffffffffffffffffffffffffffffffff166354fd4d506040518163ffffffff1660e01b815260040160206040518083038186803b15801561028157600080fd5b505afa158015610295573d6000803e3d6000fd5b505050506040513d601f19601f820116820180604052508101906102b99190610cc6565b905090565b7f000000000000000000000000000000000000000000000000000000000000000073ffffffffffffffffffffffffffffffffffffffff163373ffffffffffffffffffffffffffffffffffffffff1614610343576040517f579610db00000000000000000000000000000000000000000000000000000000815260040160405180910390fd5b600060018054806020026020016040519081016040528092919081815260200182805480156103c757602002820191906000526020600020905b8160009054906101000a900473ffffffffffffffffffffffffffffffffffffffff1673ffffffffffffffffffffffffffffffffffffffff168152602001906001019080831161037d575b5050505050905060005b81518110156104515760008282815181106103ef576103ee610cf3565b5b6020026020010151905060008060008373ffffffffffffffffffffffffffffffffffffffff1673ffffffffffffffffffffffffffffffffffffffff1681526020019081526020016000208190555050808061044990610d51565b9150506103d1565b50600067ffffffffffffffff81111561046d5761046c610d9a565b5b60405190808252806020026020018201604052801561049b5781602001602082028036833780820191505090505b50600190805190602001906104b1929190610a49565b5060007f000000000000000000000000000000000000000000000000000000000000000073ffffffffffffffffffffffffffffffffffffffff16476040516104f890610dfa565b60006040518083038185875af1925050503d8060008114610535576040519150601f19603f3d011682016040523d82523d6000602084013e61053a565b606091505b505090508061054857600080fd5b5050565b6802b5e3af16b188000081565b60007f0000000000000000000000000000000000000000000000000000000000000000905090565b7f000000000000000000000000000000000000000000000000000000000000000073ffffffffffffffffffffffffffffffffffffffff163373ffffffffffffffffffffffffffffffffffffffff1614610606576040517f579610db00000000000000000000000000000000000000000000000000000000815260040160405180910390fd5b60005b6001805490508110156106b15760006001828154811061062c5761062b610cf3565b5b9060005260206000200160009054906101000a900473ffffffffffffffffffffffffffffffffffffffff16905060008060008373ffffffffffffffffffffffffffffffffffffffff1673ffffffffffffffffffffffffffffffffffffffff168152602001908152602001600020819055505080806106a990610d51565b915050610609565b50600067ffffffffffffffff8111156106cd576106cc610d9a565b5b6040519080825280602002602001820160405280156106fb5781602001602082028036833780820191505090505b5060019080519060200190610711929190610a49565b5060003373ffffffffffffffffffffffffffffffffffffffff164760405161073890610dfa565b60006040518083038185875af1925050503d8060008114610775576040519150601f19603f3d011682016040523d82523d6000602084013e61077a565b606091505b50509050806107be576040517f08c379a00000000000000000000000000000000000000000000000000000000081526004016107b590610e6c565b60405180910390fd5b50565b6000600260009054906101000a900473ffffffffffffffffffffffffffffffffffffffff16905090565b6802b5e3af16b188000061082a600260009054906101000a900473ffffffffffffffffffffffffffffffffffffffff163461096d90919063ffffffff16565b101561086b576040517f08c379a000000000000000000000000000000000000000000000000000000000815260040161086290610ed8565b60405180910390fd5b346000803373ffffffffffffffffffffffffffffffffffffffff1673ffffffffffffffffffffffffffffffffffffffff16815260200190815260200160002060008282546108b99190610ef8565b925050819055506001339080600181540180825580915050600190039060005260206000200160009091909190916101000a81548173ffffffffffffffffffffffffffffffffffffffff021916908373ffffffffffffffffffffffffffffffffffffffff160217905550565b60006001828154811061093b5761093a610cf3565b5b9060005260206000200160009054906101000a900473ffffffffffffffffffffffffffffffffffffffff169050919050565b600080610979836109a9565b90506000670de0b6b3a764000085836109929190610f4e565b61099c9190610fd7565b9050809250505092915050565b6000808273ffffffffffffffffffffffffffffffffffffffff1663feaf968c6040518163ffffffff1660e01b815260040160a06040518083038186803b1580156109f257600080fd5b505afa158015610a06573d6000803e3d6000fd5b505050506040513d601f19601f82011682018060405250810190610a2a9190611080565b5050509150506402540be40081610a4191906110fb565b915050919050565b828054828255906000526020600020908101928215610ac2579160200282015b82811115610ac15782518260006101000a81548173ffffffffffffffffffffffffffffffffffffffff021916908373ffffffffffffffffffffffffffffffffffffffff16021790555091602001919060010190610a69565b5b509050610acf9190610ad3565b5090565b5b80821115610aec576000816000905550600101610ad4565b5090565b600080fd5b600073ffffffffffffffffffffffffffffffffffffffff82169050919050565b6000610b2082610af5565b9050919050565b610b3081610b15565b8114610b3b57600080fd5b50565b600081359050610b4d81610b27565b92915050565b600060208284031215610b6957610b68610af0565b5b6000610b7784828501610b3e565b91505092915050565b6000819050919050565b610b9381610b80565b82525050565b6000602082019050610bae6000830184610b8a565b92915050565b610bbd81610b15565b82525050565b6000602082019050610bd86000830184610bb4565b92915050565b6000819050919050565b6000610c03610bfe610bf984610af5565b610bde565b610af5565b9050919050565b6000610c1582610be8565b9050919050565b6000610c2782610c0a565b9050919050565b610c3781610c1c565b82525050565b6000602082019050610c526000830184610c2e565b92915050565b610c6181610b80565b8114610c6c57600080fd5b50565b600081359050610c7e81610c58565b92915050565b600060208284031215610c9a57610c99610af0565b5b6000610ca884828501610c6f565b91505092915050565b600081519050610cc081610c58565b92915050565b600060208284031215610cdc57610cdb610af0565b5b6000610cea84828501610cb1565b91505092915050565b7f4e487b7100000000000000000000000000000000000000000000000000000000600052603260045260246000fd5b7f4e487b7100000000000000000000000000000000000000000000000000000000600052601160045260246000fd5b6000610d5c82610b80565b91507fffffffffffffffffffffffffffffffffffffffffffffffffffffffffffffffff821415610d8f57610d8e610d22565b5b600182019050919050565b7f4e487b7100000000000000000000000000000000000000000000000000000000600052604160045260246000fd5b600081905092915050565b50565b6000610de4600083610dc9565b9150610def82610dd4565b600082019050919050565b6000610e0582610dd7565b9150819050919050565b600082825260208201905092915050565b7f43616c6c206661696c6564000000000000000000000000000000000000000000600082015250565b6000610e56600b83610e0f565b9150610e6182610e20565b602082019050919050565b60006020820190508181036000830152610e8581610e49565b9050919050565b7f596f75206e65656420746f207370656e64206d6f726520455448210000000000600082015250565b6000610ec2601b83610e0f565b9150610ecd82610e8c565b602082019050919050565b60006020820190508181036000830152610ef181610eb5565b9050919050565b6000610f0382610b80565b9150610f0e83610b80565b9250827fffffffffffffffffffffffffffffffffffffffffffffffffffffffffffffffff03821115610f4357610f42610d22565b5b828201905092915050565b6000610f5982610b80565b9150610f6483610b80565b9250817fffffffffffffffffffffffffffffffffffffffffffffffffffffffffffffffff0483118215151615610f9d57610f9c610d22565b5b828202905092915050565b7f4e487b7100000000000000000000000000000000000000000000000000000000600052601260045260246000fd5b6000610fe282610b80565b9150610fed83610b80565b925082610ffd57610ffc610fa8565b5b828204905092915050565b600069ffffffffffffffffffff82169050919050565b61102781611008565b811461103257600080fd5b50565b6000815190506110448161101e565b92915050565b6000819050919050565b61105d8161104a565b811461106857600080fd5b50565b60008151905061107a81611054565b92915050565b600080600080600060a0868803121561109c5761109b610af0565b5b60006110aa88828901611035565b95505060206110bb8882890161106b565b94505060406110cc88828901610cb1565b93505060606110dd88828901610cb1565b92505060806110ee88828901611035565b9150509295509295909350565b60006111068261104a565b91506111118361104a565b9250827f7fffffffffffffffffffffffffffffffffffffffffffffffffffffffffffffff04821160008413600084131616156111505761114f610d22565b5b817f8000000000000000000000000000000000000000000000000000000000000000058312600084126000841316161561118d5761118c610d22565b5b827f800000000000000000000000000000000000000000000000000000000000000005821260008413600084121616156111ca576111c9610d22565b5b827f7fffffffffffffffffffffffffffffffffffffffffffffffffffffffffffffff058212600084126000841216161561120757611206610d22565b5b82820290509291505056fea2646970667358221220b4fbd68abd8e935652dd26420dd282c54e967d1391483483ad650308478f54cf64736f6c63430008080033",
  "devdoc": {
    "author": "zulfikar zaffar",
    "details": "this imp;emnts price feed as our library",
    "kind": "dev",
    "methods": {},
    "title": "a contract for crowd funding",
    "version": 1
  },
  "userdoc": {
    "kind": "user",
    "methods": {},
    "notice": "this contract is a demo",
    "version": 1
  },
  "storageLayout": {
    "storage": [
      {
        "astId": 59,
        "contract": "contracts/FumdMe.sol:FundMe",
        "label": "s_addressToAmountFunded",
        "offset": 0,
        "slot": "0",
        "type": "t_mapping(t_address,t_uint256)"
      },
      {
        "astId": 62,
        "contract": "contracts/FumdMe.sol:FundMe",
        "label": "s_funders",
        "offset": 0,
        "slot": "1",
        "type": "t_array(t_address)dyn_storage"
      },
      {
        "astId": 74,
        "contract": "contracts/FumdMe.sol:FundMe",
        "label": "s_priceFeed",
        "offset": 0,
        "slot": "2",
        "type": "t_contract(AggregatorV3Interface)45"
      }
    ],
    "types": {
      "t_address": {
        "encoding": "inplace",
        "label": "address",
        "numberOfBytes": "20"
      },
      "t_array(t_address)dyn_storage": {
        "base": "t_address",
        "encoding": "dynamic_array",
        "label": "address[]",
        "numberOfBytes": "32"
      },
      "t_contract(AggregatorV3Interface)45": {
        "encoding": "inplace",
        "label": "contract AggregatorV3Interface",
        "numberOfBytes": "20"
      },
      "t_mapping(t_address,t_uint256)": {
        "encoding": "mapping",
        "key": "t_address",
        "label": "mapping(address => uint256)",
        "numberOfBytes": "32",
        "value": "t_uint256"
      },
      "t_uint256": {
        "encoding": "inplace",
        "label": "uint256",
        "numberOfBytes": "32"
      }
    }
  }
}